:100000000C942A000C9447000C9447000C94470071
:100010000C9447000C9447000C9447000C94470044
:100020000C9447000C9447000C94C3000C944700B8
:100030000C9447000C9447000C9447000C94470024
:100040000C9447000C9447000C9447000C94470014
:100050000C94470011241FBECFE5D8E0DEBFCDBF12
:1000600010E0A0E6B0E0E4E2F2E002C005900D92FC
:10007000AA36B107D9F720E0AAE6B0E001C01D9288
:10008000AD36B207E1F70E946F000C9410010C949A
:100090000000823459F018F4813431F0089583342B
:1000A00039F0843439F008956ABB089567BB089528
:1000B00064BB089561BB0895823459F018F481340B
:1000C00031F00895833439F0843439F008956BBBEE
:1000D000089568BB089565BB089562BB08950E94AA
:1000E000000184E40E94D7008AB381608ABB8AB38E
:1000F00082608ABB8BB381608BBB8BB38D7F8BBBE4
:1001000080916B006DEC869F612D1124669566953C
:10011000669584E40E94DB0080916A008823E1F305
:1001200010926A008BB382608BBB8BB38E7F8BBBCC
:1001300060916B008DEC689F812D112486958695CA
:100140008695880F982F990F990F890F681B84E463
:100150000E94DB0080916A008823E1F310926A001C
:1001600080916C00853630F280916B008F5F8093B8
:100170006B0010926C0080916B008E3109F0BACF49
:1001800010926B00B7CF1F920F920FB60F921124EF
:100190008F9380916C008F5F80936C0081E08093DF
:1001A0006A008F910F900FBE0F901F9018956FEF00
:1001B0000E9449000895CF93DF93CDB7DEB72A9709
:1001C0000FB6F894DEBF0FBECDBF9AE0E0E6F0E0D8
:1001D000DE01119601900D929A95E1F7E1E0F0E0D1
:1001E000EC0FFD1FE60FF11D60810E945C002A9656
:1001F0000FB6F894DEBF0FBECDBFDF91CF9108954B
:1002000083B7886083BF80E48CBF83B7816083BF7E
:1002100083B7846083BF789489B7826089BF08956B
:04022000F894FFCF80
:0A0224003F065B4F666D7D477F6F5C
:00000001FF
